S01700004763634170706C69636174696F6E332E7372656359
S11300000C942A000C9447000C9447000C9447006D
S11300100C9447000C9447000C9447000C94470040
S11300200C9447000C9449000C9447000C9447002E
S11300300C9447000C9447000C9447000C94470020
S11300400C9447000C9447000C9447000C94470010
S11300500C94470011241FBECFE5D8E0DEBFCDBF0E
S113006010E0A0E6B0E0E6EEF1E002C005900D92EB
S1130070A439B107D9F720E0A4E9B0E001C01D928A
S1130080A639B207E1F70E9460000C94F1000C94C9
S113009000001F920F920FB60F9211248F939F931B
S11300A0809194009091950001969093950080938F
S11300B094009F918F910F900FBE0F901F901895F1
S11300C08FEF87BB60E875E280E090E00E948300D8
S11300D00E94B100C82F80E690E00E94B900C133AD
S11300E069F481E08ABB8FEF82BB789484E089BF96
S11300F01FBC8AE18A95F1F700C0FBCF8FE790E03F
S11301000E94B900E8CF2AB128612AB920B526682F
S113011020BDDC01CB01880F991FAA1FBB1F880FCC
S1130120991FAA1FBB1F9C01AD01220F331F441F3F
S1130130551F220F331F441F551F60E072E18AE7E9
S113014090E00E94CF008FEF820F89B9DA01C901D4
S11301500197A109B109892F9A2FAB2FBB2780BD25
S113016008955F9BFECF8CB108958CB95D9BFECF43
S113017008950F931F93CF93DF938C01C0E0D0E0D9
S113018003C00E94B5002196F801EC0FFD1F808189
S11301908111F7CFDF91CF911F910F910895A1E2C3
S11301A01A2EAA1BBB1BFD010DC0AA1FBB1FEE1FED
S11301B0FF1FA217B307E407F50720F0A21BB30B38
S11301C0E40BF50B661F771F881F991F1A9469F7B4
S11301D060957095809590959B01AC01BD01CF0110
S10901E00895F894FFCF1E
S11301E6546F20537461727420746865206D616362
S11301F668696E652C20707265737320312E005306
S1130206656C6563742050726F706572204F7074EC
S1070216696F6E009A
S9030000FC
