:100000000C942A000C9434000C9434000C943400AA
:100010000C9434000C9434000C9434000C94340090
:100020000C9434000C9434000C9434000C94340080
:100030000C9434000C9434000C9434000C94340070
:100040000C9434000C9434000C9434000C94340060
:100050000C94340011241FBECFE5D8E0DEBFCDBF25
:100060000E9436000C946F000C9400008FEF84BB4C
:1000700085E783BFBB9A8AEF8CBF12BE85E090E014
:1000800036E025E015BA4FEF5FE067E2415050409F
:100090006040E1F700C0000035BB4FEF5FE067E272
:1000A000415050406040E1F700C0000015BA4FEFEA
:1000B0005FE067E2415050406040E1F700C000005F
:1000C00025BB4FEF5FE067E2415050406040E1F7F1
:1000D00000C000000197B1F680E090E00895F89428
:0200E000FFCF50
:00000001FF
