:100000000C942A000C9434000C9434000C943400AA
:100010000C9434000C9434000C9434000C94340090
:100020000C9434000C9434000C9434000C94340080
:100030000C9434000C9434000C9434000C94340070
:100040000C9434000C9434000C9434000C94340060
:100050000C94340011241FBECFE5D8E0DEBFCDBF25
:100060000E9436000C9499000C94000081B38062C9
:1000700081BB1DBC1CBC83EC99E097BD86BD82E8AA
:100080008FBD8BE18EBD4CE850E05BBD4ABD2FEFCC
:1000900031E16AE7215030406040E1F700C00000E4
:1000A0008BEB90E09BBD8ABD7FEFE1E12AE77150C9
:1000B000E0402040E1F700C000002AEE30E03BBD08
:1000C0002ABD6FEF71E1EAE761507040E040E1F76F
:1000D00000C000009BBD8ABD6FEF71E1EAE761508F
:1000E0007040E040E1F700C000005BBD4ABD4FEF4B
:1000F00051E16AE7415050406040E1F700C0000024
:100100009BBD8ABD7FEF81E19AE7715080409040AE
:10011000E1F700C000003BBD2ABDEFEF21E13AE767
:10012000E15020403040E1F700C0000080E090E066
:060130000895F894FFCFD2
:00000001FF
