S01700004763634170706C69636174696F6E312E737265635B
S11300000C942A000C9434000C9434000C943400A6
S11300100C9434000C9434000C9434000C9434008C
S11300200C9434000C9434000C9434000C9434007C
S11300300C9434000C9434000C9434000C9434006C
S11300400C9434000C9434000C9434000C9434005C
S11300500C94340011241FBECFE5D8E0DEBFCDBF21
S11300600E9436000C94F1000C94000081B3806867
S113007081BB1DBC1CBC83EC99E097BD86BD8CE69E
S113008085BD8BEB83BD2FEF31E14AE72150304032
S11300904040E1F700C000002CE823BD5FEF91E190
S11300A03AE7515090403040E1F700C0000083BD72
S11300B04FEF51E19AE7415050409040E1F700C0C2
S11300C000009AEE93BD3FEF41E15AE731504040C2
S11300D05040E1F700C0000083BD3FEF41E15AE723
S11300E0315040405040E1F700C0000023BD3FEFD5
S11300F041E15AE7315040405040E1F700C0000070
S113010083BD3FEF41E15AE7315040405040E1F7B1
S113011000C0000093BD3FEF41E15AE73150404039
S11301205040E1F700C0000083BD3FEF41E15AE7D2
S1130130315040405040E1F700C000003FEF41E142
S11301405AE7315040405040E1F700C0000023BD61
S11301503FEF41E15AE7315040405040E1F700C0E1
S1130160000083BD3FEF41E15AE731504040504029
S1130170E1F700C0000093BD3FEF41E15AE7315081
S113018040405040E1F700C0000083BD3FEF41E133
S11301905AE7315040405040E1F700C0000023BD11
S11301A02FEF31E14AE7215030404040E1F700C0F1
S11301B0000083BD5FEF21E13AE751502040304019
S11301C0E1F700C0000093BD4FEF51E19AE74150C1
S11301D050409040E1F700C0000083BD80E090E013
S10901E00895F894FFCF1E
S9030000FC
